S0160000636F6D7061726169736F6E4153462E7372656398
S113000004C1000022C1000020C100001EC1000084
S11300101CC100001AC1000018C1000016C1000074
S113002014C1000012C1000010C100000EC1000084
S11300300CC100000AC1000008C1000006C1000094
S113004004C1000002C1000000C10000FEC00000A5
S1130050FCC00000FAC00000F8C00000F6C00000B8
S1130060F4C00000F2C00000F0C00000EEC00000C8
S1130070ECC00000EAC00000E8C00000E6C00000D8
S1130080E4C00000E2C00000E0C00000DEC00000E8
S1130090DCC00000DAC00000D8C00000D6C00000F8
S11300A0D4C00000D2C00000D0C00000CEC0000008
S11300B0CCC00000CAC00000C8C00000C6C0000018
S11300C0C4C00000C2C00000C0C00000BEC0000028
S11300D0BCC00000BAC00000B8C00000B6C0000038
S11300E0B4C00000B2C00000B0C00000AEC0000048
S11300F0ACC00000AAC00000A8C00000A6C0000058
S1130100A4C00000A2C00000A0C000009EC0000067
S11301109CC000009AC0000098C0000096C0000077
S113012094C0000092C0000090C000008EC0000087
S11301308CC000008AC0000088C0000086C0000097
S113014084C0000082C0000080C000007EC00000A7
S11301507CC000007AC0000078C0000076C00000B7
S113016074C0000072C0000070C000006EC00000C7
S11301706CC000006AC0000068C0000066C00000D7
S113018064C0000062C0000060C000005EC00000E7
S11301905CC000005AC0000058C0000056C00000F7
S11301A054C0000052C0000050C000004EC0000007
S11301B04CC000004AC0000048C0000046C0000017
S11301C044C0000042C0000040C000003EC0000027
S11301D03CC000003AC0000038C0000036C0000037
S11301E034C0000032C0000030C000002EC0000047
S11301F02CC000000C94EB090C949A0AF005F3054A
S1130200F605F905FC05FF05020611241FBECFEF14
S1130210CDBFDFE3DEBF00E00CBF10E2A0E0B0E240
S1130220E6E3FAE100E00BBF02C007900D92A238AA
S1130230B107D9F721E2A2E8B0E201C01D92AB33C5
S1130240B207E1F703D00C94190DDACE0E94930C97
S11302500E94230C87E08093A20078940E94930C60
S1130260E5E3F1E21082118212821382148281E0AA
S113027085832FE38DE093E0215080409040E1F7A7
S113028000C000000ED180E090E00895089580E061
S1130290089580E0089510928A2010928820109288
S11302A08220109283201092842010928520109234
S11302B086201092872081E0089529E431E040E00F
S11302C050E268E870E28AE890E20C94880B0895A2
S11302D0E0919020F09191200190F081E02D228115
S11302E033812E0F3F1FFC014081E40FF11DE21703
S11302F0F307B8F481818430B9F0861309C005C0CE
S113030081818430A1F0861303C08E2F9F2F08951E
S11303108081E80FF11DE217F30790F380E090E08D
S1130320089580E090E0089580E090E0089580E0F2
S113033090E00895809127218F77D0C608959091F9
S11303409220992381F1E0919020F09191200190E5
S1130350F081E02D9481891740F5E0938E20F0938D
S11303608F20228133812E0F3F1FE217F307F8F409
S11303709181943061F49281981309C0938196130A
S113038006C0E0938E20F0938F2081E00895908141
S1130390E90FF11DE217F30758F3E0938E20F09371
S11303A08F2080E0089580E0089580E0089580E043
S11303B00895EF92FF921F93CF93DF93C82F60E0CD
S11303C0BEDF182F882379F1A0919020B09191205D
S11303D0EC2FF0E0EE0FFF1F12968D919C91139776
S11303E0E80FF91FE080F180D7011696ED91FC919A
S11303F017971995682F8C2FA2DF182F882399F04F
S1130400C0918E20D0918F2065E0CE0161DFEC0198
S1130410892B19F08A81A6D7F7CFD7011296ED91CF
S1130420FC9113971995812FDF91CF911F91FF9024
S1130430EF9008951F93CF93DF93182F80DF8823C5
S113044039F1C0918E20D0918F2065E0CE0140DF3C
S1130450EC01892B41F04C815D816B818A814BD603
S11304608111F3CF15C0A0919020B0919120E12F7C
S1130470F0E0EE0FFF1F12968D919C911397E80FF9
S1130480F91F0190F081E02D0190F081E02D199584
S1130490DF91CF911F91089580918E2090918F20AC
S11304A00895BDC50895CF93809192208823C1F00B
S11304B0E0919020F09191200190F081E02D8481D1
S11304C0882371F0C0E08C2F74DFCF5FE09190201F
S11304D0F09191200190F081E02D8481C81798F368
S11304E01092922081E090E0809396209093972040
S11304F0CF910895CF9380919220882349F1A091C0
S11305009020B0919120ED91FC91119784818823E2
S1130510F9F0C0E0EC2FF0E0EE0FFF1F12968D9182
S11305209C911397E80FF91F0190F081E02D00844E
S1130530F185E02D309709F01995CF5FA0919020B7
S1130540B0919120ED91FC9111978481C81710F31B
S1130550CF9108950F931F93CF93DF93E5E2F1E2D8
S1130560128613861486158616861786808188233C
S11305700CF036C220912B2130912C21211531050C
S113058009F033C229C28F7109F07FC090912621EE
S1130590963079F0983009F46EC0911176C022300B
S11305A0310509F0A2C162E070E086E990E29CD5D1
S11305B021C28091272190912821292F332722308D
S11305C03105A9F024F42130310541F085C12330EF
S11305D03105D9F12F30310551F17EC1809142208E
S11305E090914320DC016C9170E07ED535C0E091A0
S11305F04220F09143202189821708F076C199277F
S1130600880F991F880F991FE0914420F09145208D
S1130610E80FF91F80819181FC016281738164D5A7
S1130620E0912D21F0912E2182E0818315C08091EB
S1130630462090914720009709F457C1DC01129697
S11306406D917C91139750D507C081114EC164E020
S113065070E08EE390E248D5E5E2F1E2868197818D
S1130660228533858217930708F0C4C180932F2114
S113067090933021BFC12130310509F036C161E0CA
S113068070E082E990E230D5B5C18130E1F5909116
S113069026219A30C1F52130310509F026C1809117
S11306A09220882309F421C1C0912921D0912A21C3
S11306B00091902010919120D801ED91FC918481BA
S11306C0C81708F012C160E08C2F39DE882309F4C2
S11306D00CC1CE019927880F991FD8011296ED916C
S11306E0FC911397E80FF91F0190F081E02D8681AA
S11306F09781FC0119958093942061E070E084E96E
S113070090E2F2D477C1823009F0EFC080912621C3
S11307108111E4C02230310509F0E7C0809129211C
S11307207BD590E080938C2090938D2062E070E0E4
S11307308CE890E2D9D45EC18F7109F083C09091A6
S11307402621933009F4CCC018F49130A1F07AC07A
S1130750953019F0993039F175C080912B21909121
S11307602C21892B09F0C1C08AE991E080933121C1
S1130770909332213FC180912B2190912C21892B80
S113078009F0B3C08091272190912821019709F0A5
S1130790ACC080919620909197208D7F8093962075
S11307A09093972027C180912B2190912C21892B04
S11307B009F09BC096D4882309F497C0209127217F
S11307C0309128213327E0914220F0914320818900
S11307D090E08217930708F488C065DE8091272192
S11307E09091282180939220882309F403C19927AA
S11307F08150904C880F991F880F991FE0914420D5
S1130800F0914520E80FF91FE0939020F093912098
S11308100190F081E02D8481882309F4EBC0C0E0CD
S113082060E08C2F07DE882309F45FC0CF5FE0917E
S11308309020F09191200190F081E02D8481C817DF
S113084078F3D8C08130E1F4909126219B30C1F433
S113085080912B2190912C21892B09F046C0809105
S11308609220882309F441C0E5E2F1E2C481D281F7
S11308708C2F9FDD8823C9F16D2F8C2FDBDD33C0D6
S1130880823099F580912621813019F0833089F0E6
S113089029C080912B2190912C21892B31F58091B5
S11308A0272190912821892B01F580912921CFD4EA
S11308B01AC080912B2190912C21892BB1F4809125
S11308C0272190912821892B81F4C5E2D1E28C81E2
S11308D000D58C8163D507C080E005C080E003C0EB
S11308E080E001C080E0811186C0809125218F7154
S11308F0813071F580919220882351F10091292152
S113090010912A21C0919020D0919120E881F98101
S113091084810817E8F460E0802F11DD8823C1F09A
S1130920F801FF27CF01880F991FEA81FB81E80FA7
S1130930F91FC081D181EE81FF811995682F802F25
S1130940FEDC882329F0EC81FD811995811153C0C7
S1130950809125218F71823009F040C080919220CE
S11309608823B1F1A0919020B0919120ED91FC9158
S113097011978481882371F1C0E0EC2FF0E0EE0F31
S1130980FF1F12968D919C911397E80FF91F008118
S11309901181D8011696ED91FC9117971995682F3E
S11309A08C2FCDDC882339F1D8011496ED91FC917C
S11309B01597199581111FC0CF5FA0919020B09118
S11309C09120ED91FC9111979481C917B0F213C055
S11309D080E011C080E00FC080E00DC080E00BC05B
S11309E0982F907609F081CFA7CE982F907609F0B2
S11309F07CCFC9CD81E0DF91CF911F910F910895F4
S1130A00811122C0909124219923D9F0909136210B
S1130A10911101C0FFCF2FB7F894E5E3F1E2918182
S1130A20915091832FBF0DC0909136219F3F09F4BF
S1130A30FFCF2FB7F894E5E3F1E291819F5F9183B3
S1130A402FBF80932421089590912421992361F349
S1130A50F8CF0F93E8ECF4E080818F7D8083808170
S1130A608F7D8083E8E0F1E202E0059310920A2191
S1130A7010920B2100E2069300E40693E0E0F1E219
S1130A8000E2069300E40693E5E2F1E2148615869B
S1130A9016861786128613861092F7200F910895F2
S1130AA00F9385E08093F720E9E0F1E204E00593F9
S1130AB0E1E0F1E204E005930F9108950F9383E0E0
S1130AC08093F72010920A2110920B21E8E0F1E2C2
S1130AD002E006930F910895E0913121F0913221C3
S1130AE0309709F0199508950F93CF93DF93809170
S1130AF0F720833019F4F0DFACDF5EC08091F3207F
S1130B009091F420C0912F21D0913021C81BD90B92
S1130B1071F52091F5203091F620820F931F809378
S1130B20F5209093F62020912B2130912C218217CF
S1130B30930721F080919820882341F084E08093EA
S1130B40F720E0E0F1E202E0069336C0E0913321C1
S1130B50F0913421309799F01995882381F01092FF
S1130B60F3201092F420C0912F21D0913021C8306D
S1130B70D10528F010929820C8E0D0E003C081E0AD
S1130B8080939820E8EFF0E2C28BD38B8091F3201E
S1130B909091F42020912D2130912E21280F391F7E
S1130BA0248B358BC80FD91FC093F320D093F42026
S1130BB0E8E0F1E202E00693DF91CF910F9108950E
S1130BC0FC018181E82FE7708E2F90E0FC013197C2
S1130BD0E730F105D0F48827E250FF4F8F4F18C754
S1130BE080E190E0089580E290E0089580E490E050
S1130BF0089580E890E0089580E091E0089580E011
S1130C0092E008958FEF93E0089588E090E00895CE
S1130C10282F2F7030E0220F331F082E000C990B61
S1130C208827990F881F9927820F931F02979C0189
S1130C30220F331F220F331F220F331F820F931FE4
S1130C4087529F4D08950F93CF938091CC0480FFDA
S1130C5062C081E08093CC04E0E0F1E200E8069316
S1130C60E8E0F1E200E806938093CA04E0E0F1E2F0
S1130C7000E106938091F720882329F08350823085
S1130C8008F42ADFE6DE809102219091032108977F
S1130C9009F043C088E0EBEEF0E2A5E2B1E2019096
S1130CA00D928A95E1F7E8ECF4E08081806280831C
S1130CB08081806280834EDCC82F811103C0F0DE06
S1130CC0C1E02CC08091252188236CF41092F5207A
S1130CD01092F6201092F3201092F42082E0809378
S1130CE0F72002DF1BC080912B2190912C21892BAE
S1130CF011F4E4DE13C01092F5201092F620109245
S1130D00F3201092F42081E08093F720E0E0F1E2F8
S1130D1002E0069303C0C0E001C0C1E08C2FCF9174
S1130D200F9108958F929F92AF92BF92DF92EF92AC
S1130D30FF920F931F93CF93DF93D82E69DF8C011B
S1130D40BD2CBB1CBB24BB1CCD2DCF70D0E0CC0F65
S1130D50DD1FCB0DD11DCE01880F991F880F991F60
S1130D60880F991F9C0120503F4D7901C90128DF4C
S1130D704C01BB2009F470C0FE01EE0FFF1FEE0F03
S1130D80FF1FEE0FFF1FE850FF4D26853785D80162
S1130D9015968D919C911697820F931F15968D939E
S1130DA09C93169713962D913C9114978217930751
S1130DB009F43CC0281B390B2115B4E03B0738F07B
S1130DC02FEF33E0C901B4010FD6281B390BF8010A
S1130DD0808181FF09C0C901B40106D641E0892B95
S1130DE009F040E0842F01C080E0D8019C9180FB91
S1130DF091F99C93CC0FDD1FCC0FDD1FCC0FDD1FB1
S1130E00C850DF4D1E861F862A873B8711962D9179
S1130E103C91129715968D919C911697820F931F72
S1130E208C879D87F70102E00693CAC0D8018C9194
S1130E3081FFB3C08D7F8C93CC0FDD1FCC0FDD1FE2
S1130E40CC0FDD1FC850DF4D1E861F861A861B86F9
S1130E50F70102E00693B4C0FE01EE0FFF1FEE0F90
S1130E60FF1FEE0FFF1FE850FF4DA284B384D8018B
S1130E708C9182FF19C01196ED91FC9112971596F1
S1130E802D913C91169713968D919C911497B401D2
S1130E90ABD5B0E4DB9EB0011124675A7F4DAC01A1
S1130EA0CF01820F931FBCD5F801258136812A0D0D
S1130EB03B1D25833683838194818217930768F4CD
S1130EC085839683CC0FDD1FCC0FDD1FCC0FDD1F78
S1130ED0C850DF4D8E859F8560C0FE01EE0FFF1F59
S1130EE0EE0FFF1FEE0FFF1FE850FF4D468557859D
S1130EF04A155B0509F051C02817390709F44DC09C
S1130F00AC01421B530B9A01211554E0350750F0F4
S1130F102FEF33E0C901B40167D5D901A81BB90B80
S1130F20CD0107C0C901B4015FD5F901E81BF90B74
S1130F30CF01FE01EE0FFF1FEE0FFF1FEE0FFF1F8D
S1130F40E850FF4D128613868815990578F4D80168
S1130F508C9184608C93B0E4DB9EC0011124875A89
S1130F609F4D848795878686978613C0F8014181B3
S1130F70528125813681240F351FCC0FDD1FCC0F04
S1130F80DD1FCC0FDD1FC850DF4D2C873D878E87BA
S1130F909F87F70102E0069313C0D8018C9180FF6C
S1130FA00FC08E7F8C931796ED91FC911897309714
S1130FB039F015966D917C9116974D2D80E0199519
S1130FC0DF91CF911F910F91FF90EF90DF90BF9031
S1130FD0AF909F908F900895CF93CFB7F89481E00E
S1130FE00FDDEAECF4E080E4808380E28083E1ECCE
S1130FF0F4E0808181608083A9ECB4E08C9182600C
S11310008C93E8ECF4E08081806480838C9181602F
S11310108C93808180688083CFBFCF910895CF93D4
S113102080E32DD4E0ECF4E0808180648083CFB74A
S1131030F894E8EFF0E21186118A118E11A2E9ED1D
S1131040F0E280818E7F8083E2EEF0E280818E7F09
S113105080836AE170E082E02ED48F3F19F08093A0
S1131060FA0403C08FE18093FA046BE170E082E03C
S113107022D48F3F19F08093FB0403C08FE1809347
S1131080FB04E0ECF4E080818160808380818068EF
S1131090808380818061808380E091E2868397836E
S11310A08081806280838FEF8093C504E8ECF4E054
S11310B08081816080831092242180913A218F3F26
S11310C009F4FFCF9FB7F894E5E3F1E285818F5FE0
S11310D085839FBF81DFCFBFCF9108958093C304E1
S11310E008958091C3040895E5E2F1E28087918731
S11310F0628773870895282F2F7030E0220F331FE3
S1131100082E000C990B8827990F881F9927820FA6
S1131110931FFC01EE0FFF1FEE0FFF1FEE0FFF1FCB
S1131120E850FF4D2185207C09F072C06370613066
S113113011F018F404C020EC03C020E801C020E43E
S113114040385105E9F050F440325105A9F04034DB
S11311505105A1F040315105D9F40CC0411532E0DC
S1131160530791F04F3F33E0530781F0411551404D
S113117079F408C041E00DC042E00BC043E009C06F
S113118044E007C045E005C046E003C047E001C0B5
S113119040E0FC01EE0FFF1FEE0FFF1FEE0FFF1FDD
S11311A0E850FF4D1186DC01AA0FBB1FAA0FBB1F1D
S11311B0AA0FBB1FA050BF4D36E03C93242B2187C0
S11311C0FC01EE0FFF1FEE0FFF1FEE0FFF1FE85095
S11311D0FF4D2185207C203C69F4FC01EE0FFF1FAC
S11311E0EE0FFF1FEE0FFF1FE850FF4D2185277004
S11311F0273081F0880F991F880F991F880F991F36
S1131200FC01E850FF4D81858062818781E008956B
S113121080E0089581E00895E82FEF70F0E0EE0F8C
S1131220FF1F082E000C990B8827990F881F9927F8
S1131230E80FF91FEE0FFF1FEE0FFF1FEE0FFF1F4A
S1131240E850FF4D818582FB882780F908950F932C
S1131250282F2F7030E0A901440F551F282F082E86
S1131260000C330B2227330F221F3327240F351F83
S1131270F901EE0FFF1FEE0FFF1FEE0FFF1FE050EF
S1131280FF4D01E00693F901EE0FFF1FEE0FFF1F64
S1131290EE0FFF1FE850FF4D918592FF17C0220FFC
S11312A0331F220F331F220F331FF901E850FF4D64
S11312B091859B7F9187ACDCFC01808180FF06C017
S11312C08E7F80830780F085E02D199581E00F9152
S11312D00895FF920F931F93CF93DF93182FF82E47
S11312E0FF1CFF24FF1CC82FCF70D0E0CC0FDD1FE4
S11312F0CF0DD11D8DDCDC01FE01EE0FFF1FEE0FC3
S1131300FF1FEE0FFF1FE050FF4D02E005938C918D
S113131080FF22C08E7F8C931796ED91FC911897D5
S11313203097D1F0FF2059F0CC0FDD1FCC0FDD1F1B
S1131330CC0FDD1FC850DF4D6E857F850AC0CC0FF2
S1131340DD1FCC0FDD1FCC0FDD1FC850DF4D6A85BC
S11313507B85412F81E01995DF91CF911F910F91EA
S1131360FF900895CF93C82FB4DFEC2FEF70F0E017
S1131370EE0FFF1F8C2FCC0F990B8827990F881F16
S11313809927E80FF91FEE0FFF1FEE0FFF1FEE0F57
S1131390FF1FE850FF4D1186CF910895E82FEF709D
S11313A0F0E0EE0FFF1F282F082E000C330B22272E
S11313B0330F221F3327E20FF31FEE0FFF1FEE0F31
S11313C0FF1FEE0FFF1FE850FF4D9185946091873A
S11313D080DF81E008951F920F920FB60F921124BF
S11313E00BB60F920F932F933F934F935F936F938B
S11313F07F938F939F93AF93BF93EF93FF938091CA
S1131400CB0488232CF480E88093CA0473D87EC06C
S11314108091CB0482FF20C084E08093CA04809131
S1131420082186FF73C08091CC0481FD6FC00BDC62
S113143081116CC08091F720813011F43FDB66C0CC
S1131440843009F063C0E9E0F1E204E00593E1E0EF
S1131450F1E204E005935AC08091CB0481FF51C0AE
S113146082E08093CA048091002186FF4FC080915E
S1131470CC0481FD4BC0E7DB811148C08091F7208B
S1131480823041F484E08093F720E0E0F1E202E06E
S113149006933CC0833009F039C0E9E0F1E204E08E
S11314A00593E1E0F1E204E0059330C080E180932C
S11314B0CA040E9453021092C304E8EFF0E21186BA
S11314C096E0908780E48187118A908B818B8BEEE4
S11314D090E284879587BDDA19C08091CB0486FF9A
S11314E006C080E48093CA0480E08ADA0FC0809149
S11314F0CB0485FF0BC080E28093CA0481E080DACC
S113150005C08091CB0484FFE8CFD0CFFF91EF9149
S1131510BF91AF919F918F917F916F915F914F9107
S11315203F912F910F910F900BBE0F900FBE0F9014
S11315301F9018951F920F920FB60F9211240BB69D
S11315400F920F931F932F933F934F935F936F9338
S11315507F938F939F93AF93BF93CF93DF93EF9337
S1131560FF938091CC0481FD03C06DDB8111B9C070
S113157082E08093CC048091C5048195880FE0E0DB
S1131580F1E2E81BF1092081318120503142369586
S113159027953695279536952795822F869520FD94
S11315A002C090E001C090E8890FE82FEF70F0E0EE
S11315B0EE0FFF1F282F082E000C330B2227330FAA
S11315C0221F3327E20FF31FDF01AA0FBB1FAA0F4D
S11315D0BB1FAA0FBB1FA050BF4D9C9195FF81C09C
S11315E0FD0100E20693811177C08091F7208430D9
S11315F019F472DA2EDA75C00091022110910321D8
S113160080912F2190913021C091F320D091F4202A
S11316109E01200F311F8217930718F48C010C1BB5
S11316201D0B80912D2190912E21A8016BEE70E26B
S11316308C0F9D1FF5D1C00FD11FC093F320D09301
S1131640F4200830110569F48091F5209091F6207A
S11316508C0F9D1F20912B2130912C2182179307F1
S113166080F0E5E2F1E2C287D3870684F785E02DB6
S1131670309729F01995811102C012DA32C01EDAAE
S113168030C080912F2190913021C817D907F9F4E7
S1131690E0913321F0913421309711F401DA21C023
S11316A01995811102C0FCD91CC02091F5203091FC
S11316B0F6208091F3209091F420820F931F809361
S11316C0F5209093F6201092F3201092F420E0E09D
S11316D0F1E202E0069305C0803811F405DA01C096
S11316E021DBFF91EF91DF91CF91BF91AF919F915A
S11316F08F917F916F915F914F913F912F911F91A6
S11317000F910F900BBE0F900FBE0F901F90189566
S1131710CF93DF93DC01EA019091252199230CF00A
S113172063C0907609F040C0809126218630E1F5AF
S11317300E944C02DC011A962C911A97213209F06E
S113174072C0209128212132B1F49C01275F3F4FC0
S113175020932D2130932E21E5E2F1E219968C910C
S11317602681378190E02817390708F4C901828758
S1131770938781E065C0FC013785231356C0C0936D
S11317802D21D0932E21E5E2F1E2DC0150962D913A
S11317903C915197868197812817390708F4C9012C
S11317A08287938781E04CC0903209F040C08091D9
S11317B02621823039F0833071F08130D1F5F9017E
S11317C019953EC0E5E2F1E2A087B18781E090E09F
S11317D08287938735C0E5E2F1E26087718781E013
S11317E090E0828793872CC09076903221F5809187
S11317F026218A3039F08B3051F08930F1F4F90127
S113180019951EC0809128218C9381E019C0809184
S11318102B2190912C21892B91F480912721DB019C
S11318208C9381E00DC080E00BC080E009C080E0B3
S113183007C080E005C080E003C080E001C080E014
S1131840DF91CF9108958FEF8093700080937100A2
S1131850809372008093730080937400809375006A
S11318608093760008959FB7F894E82FF0E0E0594C
S1131870FF4F60958081682360839FBF0895863001
S113188011F060E001C068E18091510081FD0BC05E
S11318909FB7F894E0E5F0E08081826080839FBF89
S11318A0818181FFFDCF636084E490E00ED060E429
S11318B080E0D9CF08954091CA01E62FF72F809395
S11318C0CA0184914093CA0108951BBEFC0128ED0E
S11318D024BF60830895CF93DF93FC01709620E0CA
S11318E030E0C62FD0E0DE01022E02C0B595A795E8
S11318F00A94E2F7A0FD50832F5F3F4F31962830C2
S1131900310589F740FF0AC041FF03C0FC0165832C
S113191002C0FC016683FC01618302C0FC01628396
S1131920DF91CF91089543E050E061E080E896E0D4
S1131930D2DF43E050E062E080E896E0CCDF43E0B1
S113194050E064E080E896E0C6DF43E050E068E001
S113195080E896E0C0DF43E050E060E180E896E094
S1131960BADF43E050E060E280E896E0B4DF43E0B1
S113197050E060E480E896E0AEDF43E050E060E8E9
S113198080E896E0A8DF40E058E161E080EA96E074
S1131990A2DF40E058E162E080EA96E09CDF40E0AC
S11319A058E164E080EA96E096DF40E058E168E0C0
S11319B080EA96E090DF40E058E160E180EA96E05A
S11319C08ADF40E058E160E280EA96E084DF40E0AC
S11319D058E160E480EA96E07EDF40E058E160E8A8
S11319E080EA96E078CF0895AA1BBB1B51E107C09B
S11319F0AA1FBB1FA617B70710F0A61BB70B881F9B
S1131A00991F5A95A9F780959095BC01CD01089529
S1131A10EE0FFF1F881F8BBF0790F691E02D1994DE
S1131A20FB01DC0102C001900D9241505040D8F7F7
S1091A300895F894FFCFB5
S1131A3605010902A1010901A100050919012903EA
S1131A46150025017501950381027505950181012E
S1131A5605010930093109381581257F7508950373
S1131A668106C0C04B0146015D0147010000040325
S1131A7609047020482000004E204C20342009021E
S1131A862200010100C03209040000010301020022
S1131A960921110100012234000705810308000A07
S1131AA61201000200000008EB03002400010000FC
S1051AB6000129
S9030000FC
