S01200004D61696E5F626F6172642E7372656326
S1130000FDC000001BC1000019C1000017C10000A1
S113001015C1000013C1000011C100000FC1000090
S11300200DC100000BC1000009C1000007C10000A0
S113003005C1000003C1000001C10000FFC00000B1
S1130040FDC00000FBC00000F9C00000F7C00000C4
S1130050F5C00000F3C00000F1C00000EFC00000D4
S1130060EDC00000EBC00000E9C00000E7C00000E4
S1130070E5C00000E3C00000E1C00000DFC00000F4
S1130080DDC00000DBC00000D9C00000D7C0000004
S1130090D5C00000D3C00000D1C000000C94F80803
S11300A00C942A090C945C090C948E09C7C00000B6
S11300B0C5C00000C3C00000C1C00000BFC0000034
S11300C0BDC00000BBC00000B9C00000B7C0000044
S11300D0B5C00000B3C00000B1C00000AFC0000054
S11300E0ADC00000ABC00000A9C00000A7C0000064
S11300F0A5C00000A3C00000A1C000009FC0000074
S11301009DC000009BC0000099C0000097C0000083
S113011095C0000093C0000091C00000A1C700007A
S1130120D1C700000C9494080C94C60887C0000042
S113013085C0000083C0000081C000007FC00000B3
S11301407DC000007BC0000079C0000077C00000C3
S113015075C0000073C0000071C000006FC00000D3
S11301606DC000006BC0000069C0000067C00000E3
S113017065C0000063C0000061C000005FC00000F3
S11301805DC000005BC0000059C0000057C0000003
S113019055C0000053C0000051C000004FC0000013
S11301A04DC000004BC0000049C0000047C0000023
S11301B045C0000043C0000041C000003FC0000033
S11301C03DC000003BC0000039C0000037C0000043
S11301D035C0000033C0000031C000002FC0000053
S11301E02DC000002BC0000029C0000027C0000063
S11301F025C000000C94260E0C94D50E11241FBEAD
S1130200CFEFCDBFDFE3DEBF00E00CBF10E2A0E024
S1130210B0E2ECE3F3E200E00BBF02C007900D9202
S1130220A03AB107D9F724E2A0EAB0E201C01D92D6
S1130230A532B207E1F70BD00C949C11E1CEE0E8B3
S1130240F6E080E8818390E7928385830895CF93D5
S1130250DF93CDB7DEB7C650D140CDBFDEBF17E0C8
S11302601093A1060E94AB0F1093A20078940E94F1
S11302704C1070D42FEF33ED80E321503040804098
S1130280E1F700C000000E944B0C3DD0D8DF2AE00B
S113029040E050E0BE016F5F7F4FCE01059668D00D
S11302A082E091E0FE013596A5E0B3E201900D9263
S11302B00197E1F720E044E0BE016F5F7F4F82E8E1
S11302C090E234D0813029F465E070E087E890E270
S11302D073D384E01093A5069FEF21EE34E0915090
S11302E020403040E1F700C000001093A6069FEFC5
S11302F021EE34E0915020403040E1F700C000008E
S1130300815041F7C4CFE0E8F6E080EE8183868334
S11303100895962FD901A80FB11DFB018E2F891BBB
S1130320841718F481918D93F9CF0895382FDB0148
S1130330A20FB11DFC0180E09E2F931B941760F463
S113034091912D91921721F02223B1F380E0089529
S1130350992391F381E0F0CF0895633018F02DEFE5
S1130360260F01C020E043E0BC018DE890E2DECF1F
S11303708F929F92AF92BF92CF92DF92EF92FF92B1
S11303801F93CF93DF937C014B0180E091E00E94A7
S11303907210EC0180E091E00E9472106C0110E098
S11303A0612FCE01DADF8130B1F087EA91E601975F
S11303B0F1F700C0000019D2882391F369D15C01E0
S11303C0BC017727C60166D29E014A2DB601812F52
S11303D0A0DF1A0DE5CF940144E0BE0180E099DF6F
S11303E0CE010E940A11C6010E940A11F70110826F
S11303F0EF5FFE4F1082C701DF91CF911F91FF90F5
S1130400EF90DF90CF90BF90AF909F908F90089522
S11304101092B6211092C2211092C321E8EBF1E2AE
S113042081EA808380E2818312821382148215829E
S113043082E090E08683978310861186E4ECF1E2F3
S113044080E092ECA1E0B0E080839183A283B38347
S11304501482158288E086838091B6218F5F809311
S1130460B62181E008958091B62181508093B62110
S113047008958091B52181508093B5218091B52153
S11304801092B421089580E0089580E008950895BD
S113049090910B24892F807697FF0EC0803271F5DE
S11304A080910C24813251F5809111249091122471
S11304B08730910519F516C0803201F580910C241E
S11304C0803219F08232C1F019C0809111249091C8
S11304D012248730910591F427E432E02093172405
S11304E03093182424EC31E2209313243093142401
S11304F0809315249093162481E0089580E0089554
S1130500FF920F931F93CF93DF938091A3208111C8
S11305108EC00E94D90CC091A420D091A52088231C
S1130520A9F00E94E60CC817D90709F480C0DFB708
S1130530F894C091A620EC2FF0E0EE0FFF1FE955D0
S1130540FF4D80819181892B29F503C00E94E10C24
S1130550EACF8091A0209091A12001968093A020C1
S11305609093A1200E94D90C811109C08091A020F0
S11305709091A1208436910510F4DFBF58C00E94E9
S1130580D90C882339F08091A0209091A120803249
S1130590934098F31092A0201092A1208091A22061
S11305A0811106C081E0C11180E08093A62004C0BF
S11305B081E0C11180E0C82F81E08093A320DFBFD8
S11305C0D0E08E01000F111FF801E955FF4D808125
S11305D09181FF24F3948034910509F4F12C803443
S11305E0910571F00E94D90C882319F00E94E60C41
S11305F002C00E94E10C8093A4209093A52004C023
S11306001092A4201092A520F801E955FF4D2081F5
S11306103181AE0186E0440F551F8A95E1F74455B8
S11306205F4D0EE113E06F2D81E80E94670DDF91AD
S1130630CF911F910F91FF90089562CF811114C043
S11306402091A62081E090E0222311F080E090E048
S1130650880F991FFC01E955FF4D108211821092F9
S1130660A2201092A3204CCF08954FB7F894209164
S11306702D2130912E21E0912F21F0E0EE0FFF1F6C
S1130680E05DFE4D808191814FBF821B930B0895E5
S113069080E0EBCFEADF21E0892B09F420E0822F10
S11306A008950F931F93CF93DF938FB7F8942091FE
S11306B02F2190912C21911110C060912D217091C6
S11306C02E21C22FD0E0FE01EE0FFF1FE05DFE4D94
S11306D0408151816417750718F48FBF80E01FC0F3
S11306E010922D2110922E2191E0211190E09093EF
S11306F02F2191E090932C218FBF80E0CBDFAE01BE
S113070086E0440F551F8A95E1F74C5C5E4D08EC7A
S113071013E020E430E061E082E00E94670DDF91A5
S1130720CF911F910F9108951092B5211092A3209B
S11307301092A2201092A6201092A7201092A82016
S11307401092A9201092AA201092A4201092A52001
S1130750D7DE10922C2110922F211092302110926A
S11307603121109232211092332110922D211092B6
S11307702E2197DF882359F09091B5219F5F9093A4
S1130780B5219091B521913011F49093B42108953D
S11307900F931F93811126C080912F2121E0811195
S11307A020E030E06115710589F4842F96E0220F72
S11307B0331F9A95E1F7A9014C5C5E4D08EC13E0F8
S11307C020E430E061E00E94670D0CC0220F331F6B
S11307D0F901E05DFE4D6083718310922C211F911D
S11307E00F915FCF1F910F91089580E053CFEF9247
S11307F0FF920F931F93CF93DF938B01EA014FB7BF
S1130800F89480912D2190912E2160912F2170E0F8
S1130810FB01EE0FFF1FE05DFE4D208131814FBFD4
S11308208217930730F08091B4218111E8CFCE0173
S11308302AC020813181281B390B7E012C173D07EA
S113084008F4790126E0660F771F2A95E1F7680F0F
S1130850791F6C5C7E4DA701C8010E9493118091A1
S11308602D2190912E218E0D9F1D80932D219093EB
S11308702E210E0D1F1DCE19DF0913DF209709F05D
S1130880BECF80E090E0DF91CF911F910F91FF9058
S1130890EF900895AB01BC0180E0A9CF4FB7F89465
S11308A09091A620E92FF0E0EE0FFF1FE955FF4DD0
S11308B0208131812034310589F48091A320811174
S11308C00DC08091A220811109C081E08093A220F3
S11308D0911180E08093A62020E030E04FBF80E4B7
S11308E090E0821B930B0895D9DF21E0892B09F452
S11308F020E0822F08957F928F929F92AF92BF92B1
S1130900CF92DF92EF92FF920F931F93CF93DF93D7
S11309106B01EA018091CA21893011F4CC0FDD1FEB
S113092040E4A42EB12C80E0DFDF811106C0809169
S1130930B4218111F8CFCE0131C07FB6F8948091F3
S1130940A62090E04C01880C991CF401E955FF4D58
S1130950E080F18095012E193F098E012C173D0787
S113096008F4890126E0880F991F2A95E1F78E0D76
S11309709F1DA801B60184559F4D0E949311F40157
S1130980E955FF4DE00EF11EE082F1827FBEC00EFC
S1130990D11EC01BD10B39F680E090E0DF91CF91DE
S11309A01F910F91FF90EF90DF90CF90BF90AF9089
S11309B09F908F907F900895AB01BC0180E09BCF06
S11309C080910D248F77F7C79091D221911102C0A5
S11309D080E00895E091D021F091D1210190F0813F
S11309E0E02D94818917A0F7E093CE21F093CF21D5
S11309F0228133812E0F3F1FE217F30798F4918170
S1130A00943061F49281891309C09381691306C0FB
S1130A10E093CE21F093CF2181E008959081E90FF6
S1130A20F11DEACFE093CE21F093CF21D1CFE09115
S1130A30D021F091D1210190F081E02D22813381E8
S1130A402E0F3F1FFC014081E40FF11DE217F30755
S1130A5048F48181843031F0853039F08081E80FA9
S1130A60F11DF4CF80E090E00895CF0108951F9325
S1130A70CF93DF93182FA8DF882339F1C091CE21BB
S1130A80D091CF21CE01D3DFEC01892B41F04C81F1
S1130A905D816B818A81A4D78111F4CF16C0E09166
S1130AA0D021F091D12192818381E92FF82FE10F98
S1130AB0F11DE10FF11D0190F081E02D0190F08115
S1130AC0E02DDF91CF911F91199480E0DF91CF91B8
S1130AD01F910895EF92FF921F93CF93DF93C82F36
S1130AE060E072DF811102C010E02DC0E091D021DE
S1130AF0F091D12192818381E92FF82FEC0FF11D20
S1130B00EC0FF11DE080F180D7011696ED91FC9178
S1130B1017971995682F8C2F57DF182F882321F3E7
S1130B20C091CE21D091CF21CE0181DFEC01892B60
S1130B3021F08A810E94110EF7CFD7011296ED9110
S1130B40FC9113971995812FDF91CF911F91FF90FD
S1130B50EF900895C3C6CF938091D221882311F0DA
S1130B60C0E00AC01092D22181E090E08093D621A7
S1130B709093D721CF910895E091D021F091D12184
S1130B800190F081E02D8481C81760F78C2FA2DFDB
S1130B90CF5FF2CFCF938091D2218823F1F0C0E0D0
S1130BA0E091D021F091D121A081B18114968C9152
S1130BB0C81798F492818381E92FF82FEC0FF11D67
S1130BC0EC0FF11D0190F081E02D0084F185E02D02
S1130BD0309709F01995CF5FE3CFCF9108950F9324
S1130BE01F93CF93DF931092152410921624109222
S1130BF01724109218241092192410921A24809108
S1130C000B2487FF07C02091112430911224232B39
S1130C1009F420C2982F907609F0A9C187FFDBC0A0
S1130C2020911124309112242115310509F49FC11A
S1130C308F7109F07EC080910C24863071F0883069
S1130C4009F46DC0811193C12230310509F08FC1BF
S1130C5062E070E086ED91E26AC080910D2490918B
S1130C600E24292F332722303105A1F060F42130DE
S1130C70310509F07CC180911A2090911B20DC0180
S1130C806C9170E03AC02330310589F12F30310581
S1130C9009F16DC1E0911A20F0911B20218982177E
S1130CA008F065C19927880F991F880F991FE09153
S1130CB01C20F0911D20E80FF91F80819181FC0117
S1130CC06281738186D6E0911324F091142482E02A
S1130CD0818314C080911E2090911F20009709F4F5
S1130CE046C1DC0112966D917C91139706C0811167
S1130CF03EC164E070E08EE790E26BD680911124EF
S1130D009091122420911524309116248217930770
S1130D1008F06BC1809315249093162466C121308A
S1130D20310509F024C161E070E082ED91E251D611
S1130D305CC18130C1F580910C248A3009F017C15F
S1130D402130310509F013C18091D221882309F49F
S1130D500EC1C0910F24D09110240091D021109184
S1130D60D121D801ED91FC918481C81708F0FFC00E
S1130D7060E08C2F29DE882309F4F9C0DD27CC0F2D
S1130D80DD1FF80182819381C80FD91FE881F981A1
S1130D900680F781E02D19958093D42161E070E0FD
S1130DA084ED91E2C4CF823009F0E1C080910C243B
S1130DB08111DDC02230310509F0D9C080910F24A2
S1130DC062D690E08093CC219093CD2162E070E0D4
S1130DD08CEC91E2ACCF8F7109F07DC080910C2432
S1130DE0833009F4C4C018F48130A1F0C0C0853048
S1130DF019F0893039F1BBC08091112490911224EB
S1130E00892B09F0B4C080EE94E08093172490936A
S1130E101824EBC08091112490911224892B09F09D
S1130E20A6C080910D2490910E24019709F09FC0D3
S1130E308091D6219091D7218D7F8093D621909354
S1130E40D721D3C08091112490911224892B09F0C9
S1130E508EC0B4D5882309F48AC020910D24309122
S1130E600E243327E0911A20F0911B20818990E011
S1130E708217930708F47BC06EDE80910D24909155
S1130E800E248093D221882309F4AFC0992781507E
S1130E90904C880F991F880F991F20911C20309126
S1130EA01D20820F931F8093D0219093D121C0E005
S1130EB0E091D021F091D1210190F081E02D848145
S1130EC0C81708F092C060E08C2FD1DD882309F4A4
S1130ED04EC0CF5FEDCF8130E9F480910C248B308C
S1130EE009F045C08091112490911224892B09F0B6
S1130EF03EC08091D221882309F439C0C0910F24C7
S1130F00D0910D248C2FE6DD882389F16D2F8C2F51
S1130F10AEDD2BC0823059F580910C24813019F05C
S1130F20833089F024C08091112490911224892B5C
S1130F30F1F480910D2490910E24892BC1F48091B9
S1130F400F24A8D512C08091112490911224892BCA
S1130F5071F480910D2490910E24892B41F4809199
S1130F600F242FD680910F2465D681113EC0809125
S1130F700B248F718130D9F58091D221882309F413
S1130F8069C0C0910F24D09110240091D0211091F8
S1130F90D121D801ED91FC918481C81708F05AC081
S1130FA060E08C2F11DD882311F1FE01FF27EE0F85
S1130FB0FF1FD80112968D919C911397E80FF91F8A
S1130FC000811181D8011696ED91FC91179719951E
S1130FD0682F8C2FF9DC882351F0D8011496ED91F9
S1130FE0FC9115971995882311F081E034C0809104
S1130FF00B248F71823071F58091D221882351F1B5
S1131000C0E0E091D021F091D121A081B18114966A
S11310108C91C817F8F492818381E92FF82FEC0F93
S1131020F11DEC0FF11D00811181D8011696ED918F
S1131030FC9117971995682F8C2FC6DC882351F0E3
S1131040D8011496ED91FC91159719958111CDCF86
S1131050CF5FD7CF80E0DF91CF911F910F9108959B
S11310601F920F920FB60F9211240BB60F922F936B
S11310703F934F935F936F937F938F939F93AF931C
S1131080BF93EF93FF934091240250912502E09186
S11310900924F0910A2461E080E092E01995FF911F
S11310A0EF91BF91AF919F918F917F916F915F91DC
S11310B04F913F912F910F900BBE0F900FBE0F9049
S11310C01F9018951F920F920FB60F9211240BB612
S11310D00F922F933F934F935F936F937F938F93CD
S11310E09F93AF93BF93EF93FF9340912C02509142
S11310F02D02E0910924F0910A2462E080E092E05C
S11311001995FF91EF91BF91AF919F918F917F912D
S11311106F915F914F913F912F910F900BBE0F9064
S11311200FBE0F901F9018951F920F920FB60F923B
S113113011240BB60F922F933F934F935F936F93AA
S11311407F938F939F93AF93BF93EF93FF934091BC
S1131150340250913502E0910924F0910A2464E0AC
S113116080E092E01995FF91EF91BF91AF919F912B
S11311708F917F916F915F914F913F912F910F903C
S11311800BBE0F900FBE0F901F9018951F920F92D9
S11311900FB60F9211240BB60F922F933F934F93D8
S11311A05F936F937F938F939F93AF93BF93EF93CB
S11311B0FF9340913C0250913D02E0910924F0914B
S11311C00A2468E080E092E01995FF91EF91BF91C5
S11311D0AF919F918F917F916F915F914F913F91CB
S11311E02F910F900BBE0F900FBE0F901F9018956C
S11311F01F920F920FB60F9211240BB60F922F93DA
S11312003F934F935F936F937F938F939F93AF938A
S1131210BF93EF93FF934091640250916502E09174
S11312200724F091082461E080E492E01995FF918D
S1131230EF91BF91AF919F918F917F916F915F914A
S11312404F913F912F910F900BBE0F900FBE0F90B7
S11312501F9018951F920F920FB60F9211240BB680
S11312600F922F933F934F935F936F937F938F933B
S11312709F93AF93BF93EF93FF9340916C02509170
S11312806D02E0910724F091082462E080E492E08A
S11312901995FF91EF91BF91AF919F918F917F919C
S11312A06F915F914F913F912F910F900BBE0F90D3
S11312B00FBE0F901F9018951F920F920FB60F92AA
S11312C011240BB60F922F933F934F935F936F9319
S11312D07F938F939F93AF93BF93EF93FF9340912B
S11312E0740250917502E0910724F091082464E09F
S11312F080E492E01995FF91EF91BF91AF919F9196
S11313008F917F916F915F914F913F912F910F90AA
S11313100BBE0F900FBE0F901F9018951F920F9247
S11313200FB60F9211240BB60F922F933F934F9346
S11313305F936F937F938F939F93AF93BF93EF9339
S1131340FF9340917C0250917D02E0910724F0913B
S1131350082468E080E492E01995FF91EF91BF9131
S1131360AF919F918F917F916F915F914F913F9139
S11313702F910F900BBE0F900FBE0F901F901895DA
S1131380E82FF0E0E55EFB4D80818F3F09F4FFCF4D
S11313909FB7F89480818F5F80839FBF0895E82F63
S11313A0F0E0E55EFB4D8081811101C0FFCF9FB766
S11313B0F8948081815080839FBF0895CF93C82F74
S11313C080910423C11105C0882339F081E0E7DF4F
S11313D004C0811102C081E0D3DFC0930423CF9104
S11313E00895282F2F70082E000C990B392F331FC6
S11313F03327331F832F90E0820F911D820F911D9D
S113140023E0880F991F2A95E1F780539D4D089595
S11314100F93E8ECF4E080818F7D808380818F7D61
S11314208083E8EDF2E202E005931092DA22109252
S1131430DB2200E2069300E40693E0EDF2E200E230
S1131440069300E40693EBE0F4E214861586168610
S11314501786128613861092C1220F9108950F9356
S113146085E08093C122E9EDF2E204E00593E1ED29
S1131470F2E204E005930F9108950F9383E08093C3
S1131480C1221092DA221092DB22E8EDF2E202E0AD
S113149006930F910895E0911724F0911824309742
S11314A009F019940895282F2F70082E000C990B19
S11314B0392F331F3327331F832F90E0820F911D61
S11314C0820F911D029749E0489F9001499F300D7A
S11314D01124C901875A9D4D0895AF92BF92DF929E
S11314E0EF92FF920F931F93CF93DF93D82EDBDFFE
S11314F0EC018D2D76DF7C01DC011196EC91E77017
S1131500E150E73040F4F0E0EE0FFF1FEF56FF4DDF
S11315100081118102C008E010E02D813E818B81A1
S11315209C814881D7FE4AC0F70166817781260FE6
S1131530371F2D833E8328173907A1F1BC01621B95
S1131540730B9B01211574E0370738F02FEF33E05C
S1131550C901B801B3D5281B390B41FF0AC0C90121
S1131560B801ACD5AC0191E0452B09F090E0892F8E
S113157001C080E0988180FB91F99883D701169689
S11315801D921C92179712962D933C9313972981C1
S11315903A818D819E81820F931F14968D939C9323
S11315A0159708C041FF78C04D7F48831682178283
S11315B012821382F70102E0069385C0D7011296C6
S11315C0AD90BC90139742FF0FC0E981FA81B80136
S11315D075D5B0E4DB9EB001112467567E4DAC0195
S11315E0CF01820F931F9FD62D813E812A0D3B1D73
S11315F02D833E838B819C818217930710F48D8306
S11316009E83F70126813781A216B30609F044C0F0
S11316102D813E818217930709F43EC0AC01421B21
S1131620530B9A01211554E0350750F02FEF33E0A6
S1131630C901B80143D5B901681B790BCB0107C0B7
S1131640C901B8013BD5D901A81BB90BCD01F701DC
S1131650128213828017910798F4888184608883AA
S1131660F0E4DF9EC001112487569E4DD7011496E5
S11316708D939C93159716960D931C9317979ACF59
S113168049815A812D813E81240F351FF70124831E
S11316903583868397838ECF888180FF14C08E7FA5
S11316A08883EF81F885309771F06D817E814D2DAF
S11316B080E0DF91CF911F910F91FF90EF90DF9029
S11316C0BF90AF901994DF91CF911F910F91FF902C
S11316D0EF90DF90BF90AF9008950F93CF93DF9377
S11316E08091C122833029F4D6DEDF91CF910F910E
S11316F08FCE2091BD223091BE22C0911524D0916D
S11317001624C21BD30B61F58091BF229091C02295
S1131710820F931F8093BF229093C02220911124A3
S1131720309112248217930721F08091D8218823C5
S113173031F084E08093C122E0EDF2E236C0E09122
S11317401924F0911A24309799F01995882381F07F
S11317501092BD221092BE22C0911524D09116245D
S1131760C034D10528F01092D821C0E4D0E003C0E1
S113177081E08093D821C093DA22D093DB22809138
S1131780BD229091BE222091132430911424280F5D
S1131790391F2093DC223093DD22C80FD91FC09358
S11317A0BD22D093BE22E8EDF2E202E00693DF917F
S11317B0CF910F9108950F93CF938091CC0480FF24
S11317C063C021E02093CC0480ED92E2FC0100E8A8
S11317D00693E8EDF2E200E806932093CA04FC01C4
S11317E000E106938091C122882329F0835082303E
S11317F008F451DE0DDE8091D2229091D322089715
S113180009F044C088E0EDE7F2E2ABE0B4E2019015
S11318100D928A95E1F78091C80480628093C80490
S11318208091C80480628093C804D9D9C82F8111DB
S113183002C015DE2BC080910B2487FF0DC01092CF
S1131840BF221092C0221092BD221092BE2282E0CA
S11318508093C12242DF1BC08091112490911224F5
S1131860892B11F40ADE13C01092BF221092C022F9
S11318701092BD221092BE2281E08093C122E0ED3D
S1131880F2E202E0069303C0C0E001C0C1E08C2F85
S1131890CF910F910895CF93CFB7F89481E08EDD67
S11318A0EAECF4E080E4808380E28083E1ECF4E01D
S11318B0808181608083A9ECB4E08C9182608C93F8
S11318C0E8ECF4E08081806480838C9181608C9367
S11318D0808180688083CFBFCF910895CF93109289
S11318E0600080E395D38091C00480648093C00439
S11318F081E080936000CFB7F8941092D1221092C7
S1131900D9221092E1221092E9221092F12210922F
S1131910F922809159228E7F8093592280916222EC
S11319208E7F8093622280916B228E7F80936B22C4
S1131930809174228E7F809374226AE170E082E049
S11319409BD38F3F09F48FE18093FA046BE170E03D
S113195082E092D38F3F09F48FE18093FB0480915E
S1131960C00482608093C0048091C0048068809326
S1131970C0048091C00480618093C00480ED92E231
S11319808093C6049093C7048091C00480628093BE
S1131990C0048FEF8093C5048091C8048160809354
S11319A0C8041092042385E0EBDC75DFCFBFCF9130
S11319B0089580E008958093C30408958091C3043A
S11319C008958091002390910123089580E090E090
S11319D00895EBE0F4E28087918762877387089526
S11319E01F93CF93DF93162FEA01FBDCFC01818167
S11319F0807C09F041C0612F6370613019F020F0E0
S1131A0080E803C080EC01C080E4C038D105E1F077
S1131A1050F4C032D105A1F0C034D10599F06097DB
S1131A20C9F491E018C0C11592E0D90779F0CF3F0D
S1131A3093E0D90769F0C115D14061F495E00BC07A
S1131A4092E009C093E007C094E005C096E003C0AB
S1131A5097E001C090E0118226E02083982B9183C7
S1131A608181807C803C21F481818770873031F0D2
S1131A7081818062818302C080E001C081E0DF91C6
S1131A80CF911F910895ADDCFC01818182FB8827F1
S1131A9080F908950F93CF93C82FA3DCFC0101E0D4
S1131AA00693818182FF0FC081818B7F81838C2F7C
S1131AB0FADCFC01908190FF06C09E7F9083078032
S1131AC0F085E02D199581E0CF910F910895AF92A3
S1131AD0BF92CF92DF92EF92FF920F931F93CF9317
S1131AE0DF93D82EC62E5A017901DDDCEC018D2D51
S1131AF078DC9C01DC0111968C911197807C09F4AF
S1131B0054C011968C911197807C803C21F01196E1
S1131B108C9182FD4AC09FB7F894888180FF02C0EF
S1131B209FBF43C0816088839FBFA982BA82EB8232
S1131B30FC821D821E820F83188791E0C11004C0AD
S1131B40E114F10409F090E0888190FB81F98B7F26
S1131B508883D7FE02C0F90122C0D90111968C9165
S1131B601197807C803CC1F41196EC91E770E150B0
S1131B70E73040F4F0E0EE0FFF1FEF56FF4D6081B9
S1131B80718102C068E070E0C70198D2892B21F00E
S1131B9088818E7F888309C0F9011282138216829C
S1131BA017828D2D9ADC81E001C080E0DF91CF9116
S1131BB01F910F91FF90EF90DF90CF90BF90AF9067
S1131BC00895EF92FF920F93CF93C82F0ADC7C0104
S1131BD08C2F69DCDC01F70102E005939C9190FFF6
S1131BE01BC09E7F9C931796ED91FC91189730979C
S1131BF099F0D701C7FF05C016966D917C91179790
S1131C0004C012966D917C9113974C2F81E0CF9173
S1131C100F91FF90EF901994CF910F91FF90EF9057
S1131C200895CF93C82FCDDF8C2FDBDBFC0111820D
S1131C30CF910895CF93C82FD4DBFC019181946098
S1131C4091838C2FBEDF81E0CF9108951F920F9274
S1131C500FB60F9211240BB60F920F932F933F934D
S1131C604F935F936F937F938F939F93AF93BF93A0
S1131C70EF93FF938091CB0487FF06C080E88093A5
S1131C80CA040E94CA057DC08091CB0482FF18C09B
S1131C9084E08093CA048091D82286FF72C0809128
S1131CA0CC0481FD6EC087DD81116BC08091C1229F
S1131CB0813011F4E2DB65C0843009F062C021C0D8
S1131CC08091CB0481FF26C082E08093CA04809176
S1131CD0D02286FF56C08091CC0481FD52C06BDDBA
S1131CE081114FC08091C122823041F484E08093FD
S1131CF0C122E0EDF2E202E0069343C0833009F032
S1131D0040C0E9EDF2E204E00593E1EDF2E204E023
S1131D10059337C08091CB0484FF21C080E1809378
S1131D20CA0481E04EDF81E84CDF0E94AB051092CB
S1131D30C3041092D12296E09093D02283E480933E
S1131D40D1221092D9229093D8228093D9228DE760
S1131D5092E28093D4229093D5225ADB12C08091D0
S1131D60CB0486FF05C080E48093CA0480E008C0E9
S1131D708091CB0485FF05C080E28093CA0481E092
S1131D801DDBFF91EF91BF91AF919F918F917F9157
S1131D906F915F914F913F912F910F910F900BBED7
S1131DA00F900FBE0F901F9018951F920F920FB6B1
S1131DB00F9211240BB60F920F931F932F933F93FF
S1131DC04F935F936F937F938F939F93AF93BF933F
S1131DD0CF93DF93EF93FF938091CC0481FF1AC0DC
S1131DE082E08093CC048091C5048195880FE0ED56
S1131DF0F2E2E81BF10920813181205D324283E067
S1131E00369527958A95E1F7822F869520FD06C0A1
S1131E10C0E005C0D0DC882319F386C0C0E8C80F31
S1131E208C2FDFDAFC01208125FF7EC000E20693BF
S1131E30C11174C08091C122843019F42CDBE8DA1A
S1131E4073C00091D2221091D322809115249091D5
S1131E501624C091BD22D091BE2298012C0F3D1FA3
S1131E608217930718F48C010C1B1D0B809113240B
S1131E7090911424A8016DE772E28C0F9D1F53D238
S1131E80C00FD11FC093BD22D093BE2200341105D0
S1131E9069F48091BF229091C0228C0F9D1F2091E4
S1131EA01124309112248217930788F0C0931524CB
S1131EB0D0931624E0911924F0911A24309729F034
S1131EC01995811102C0CBDA2FC0D7DA2DC08091C9
S1131ED0152490911624C817D907D9F4E091192430
S1131EE0F0911A24309779F31995882361F320919E
S1131EF0BF223091C0228091BD229091BE22820FD8
S1131F00931F8093BF229093C0221092BD221092FF
S1131F10BE22E0EDF2E202E0069306C0C03811F4FE
S1131F20DCDB02C08C2FD9DAFF91EF91DF91CF91E6
S1131F30BF91AF919F918F917F916F915F914F91DD
S1131F403F912F911F910F910F900BBE0F900FBED9
S1131F500F901F901895CF93DF9300D01F92CDB7A9
S1131F60DEB78FEF809370008093710080937200CE
S1131F70809373008093740080937500809376003F
S1131F806CE170E082E078D08C836DE170E082E0F7
S1131F9073D08B838B819C81019621F480E493E23E
S1131FA08B839C838B819C8189839A838093620039
S1131FB08A81809363008BEC809352009FB7F894DE
S1131FC0809150008860809350009FBF80915100A1
S1131FD083FFFCCF63E080E490E058D09FB7F8948F
S1131FE0809150008E7F809350009FBF2496CDBF78
S1131FF0DEBFDF91CF9108959FB7F894E82FF0E00A
S1132000E059FF4F60958081682360839FBF0895E6
S1132010863011F060E001C068E18091510081FDDB
S113202024C09FB7F8948091500082608093500040
S11320309FBF8091510081FFFCCF9FB7F89480919E
S11320405600897F8093560080E8809365008BEB6F
S1132050809366008091560084608093560080913E
S113206060008160809360009FBF636084E490E0BF
S11320700DD060E480E0C0CF4091CA01E62FF72F75
S11320808093CA0184914093CA0108951BBEFC0148
S113209028ED24BF608308958BEC809352008091D7
S11320A050008860809350008091510083FFFCCFE2
S11320B088ED84BF83E0809340000895AA1BBB1B76
S11320C051E107C0AA1FBB1FA617B70710F0A61B34
S11320D0B70B881F991F5A95A9F780959095BC0155
S11320E0CD0108950F931F93CF93DF938230910511
S11320F010F482E090E0E0912324F091242420E085
S113210030E0A0E0B0E0309719F1408151810281C4
S1132110138148175907C8F08417950769F4109775
S113212031F012960C93129713961C9327C00093C8
S113213023241093242422C02115310519F04217B9
S1132140530718F49A01BD01EF01DF01F801DBCF59
S113215021153105F9F0281B390B2430310580F4A1
S11321608A819B816115710521F0FB018283938330
S113217004C08093232490932424FE01329644C007
S1132180FE01E20FF31F81939193225031092883BA
S113219039833AC02091212430912224232B41F405
S11321A02091022030910320209321243093222473
S11321B020910020309101202115310541F42DB7E3
S11321C03EB74091042050910520241B350BE0912B
S11321D02124F0912224E217F307A0F42E1B3F0BD5
S11321E02817390778F0AC014E5F5F4F2417350785
S11321F048F04E0F5F1F4093212450932224819373
S1132200919302C0E0E0F0E0CF01DF91CF911F9104
S11322100F910895CF93DF93009709F481C0FC01D7
S1132220329712821382A0912324B0912424109710
S113223081F420813181820F931F209121243091D8
S113224022242817390751F5E0932124F0932224FE
S113225067C0ED0120E030E0CE17DF0740F44A818B
S11322605B819E0141155105F1F0EA01F5CFC2836E
S1132270D38340815181840F951FC817D90759F41E
S113228088819981840F951F0296808391838A8126
S11322909B81828393832115310529F4E0932324C0
S11322A0F09324243DC0E901EA83FB8349915991C9
S11322B0C40FD51FEC17FD0761F480819181840F51
S11322C0951F0296E90188839983828193818A8389
S11322D09B83E0E0F0E012968D919C911397009718
S11322E019F0FD01DC01F7CF8D919C9111979D01AF
S11322F02E5F3F4F820F931F20912124309122247F
S11323002817390769F4309729F41092232410927E
S1132310242402C012821382A0932124B093222485
S1132320DF91CF910895FB01DC0102C001900D9271
S10F233041505040D8F70895F894FFCFB6
S113233C00002524200094033902430245021D03A6
S113234C080233024802450200006C2020200000E1
S113235C282024201020062009024300020100C07A
S113236C32090400000102020100052400100104DA
S113237C2402020524060001052401030107058239
S113238C0340001009040100020A00000007058143
S113239C0240000007050202400000001201000286
S11323AC02000040EB0304240001000000010403BC
S11323BC0904434F434B004341434B0D00656F7479
S11323CC00100020004000800000010002FF030008
S9030000FC
