:10000000FDC000001BC1000019C1000017C10000A5
:1000100015C1000013C1000011C100000FC1000094
:100020000DC100000BC1000009C1000007C10000A4
:1000300005C1000003C1000001C10000FFC00000B5
:10004000FDC00000FBC00000F9C00000F7C00000C8
:10005000F5C00000F3C00000F1C00000EFC00000D8
:10006000EDC00000EBC00000E9C00000E7C00000E8
:10007000E5C00000E3C00000E1C00000DFC00000F8
:10008000DDC00000DBC00000D9C00000D7C0000008
:10009000D5C00000D3C00000D1C000000C9473098B
:1000A0000C94A5090C94D7090C94090AC7C0000048
:1000B000C5C00000C3C00000C1C00000BFC0000038
:1000C000BDC00000BBC00000B9C00000B7C0000048
:1000D000B5C00000B3C00000B1C00000AFC0000058
:1000E000ADC00000ABC00000A9C00000A7C0000068
:1000F000A5C00000A3C00000A1C000009FC0000078
:100100009DC000009BC0000099C0000097C0000087
:1001100095C0000093C0000091C000000C94AB0893
:100120000C94DD080C940F090C94410987C0000061
:1001300085C0000083C0000081C000007FC00000B7
:100140007DC000007BC0000079C0000077C00000C7
:1001500075C0000073C0000071C000006FC00000D7
:100160006DC000006BC0000069C0000067C00000E7
:1001700065C0000063C0000061C000005FC00000F7
:100180005DC000005BC0000059C0000057C0000007
:1001900055C0000053C0000051C000004FC0000017
:1001A0004DC000004BC0000049C0000047C0000027
:1001B00045C0000043C0000041C000003FC0000037
:1001C0003DC000003BC0000039C0000037C0000047
:1001D00035C0000033C0000031C000002FC0000057
:1001E0002DC000002BC0000029C0000027C0000067
:1001F00025C000000C94A10E0C94500F11241FBEBA
:10020000CFEFCDBFDFE3DEBF00E00CBF10E2A0E028
:10021000B0E2E2E3F4E200E00BBF02C007900D920F
:10022000A23AB107D9F724E2A2EAB0E201C01D92D6
:10023000A733B207E1F76ED00C941712E1CEFB01A1
:100240001994E0E8F6E080E8818390E79283858363
:100250000895E0E8F6E080E885832FEF37E893E142
:10026000215030409040E1F700C00000868308959F
:100270008091880686FB882780F908950F931F9345
:10028000CF93DF93EC011881112309F43CC01130A6
:10029000C9F59C818B818917A8F1981305C0188234
:1002A0001A821C8213E030C08A81811103C01D8232
:1002B00089811EC00D81013051F018F0023091F09B
:1002C00021C0C7DF8C818F5F8C831D831DC0D0DF71
:1002D000813011F41D830AC0CBDF811113C082E08D
:1002E0008D8304C0C5DF811105C00D838A818150D3
:1002F0008A830AC0BDDF813029F418821A821C82E9
:1003000010E002C002C012E0812FDF91CF911F9157
:100310000F910895CF93DF93CDB7DEB7C650D1408C
:10032000CDBFDEBF17E01093A1060E9426101093E8
:10033000A20078940E94C71088D42FEF33ED80E399
:10034000215030408040E1F700C000000E94C60C00
:1003500055D077DF88EEF82E93E0E92E2AE040E0D2
:1003600050E0BE016F5F7F4FCE0105967CD082E0EA
:1003700091E0FE013596A5E0B3E201900D92019760
:10038000E1F720E044E0BE016F5F7F4F84E890E238
:1003900048D0082F8130C1F465E070E089E890E230
:1003A00086D3E0910620F09107200083E09106209B
:1003B000F0910720F1828091062090910720FC01A6
:1003C000E3826EE371E03BDF84E01093A506FFEF6C
:1003D00021EE34E0F15020403040E1F700C0000051
:1003E0001093A6069FEFE1EEF4E09150E040F0405C
:1003F000E1F700C00000815041F7B0CFE0E8F6E03F
:1004000080EE818386830895962FD901A80FB11DB0
:10041000FB018E2F891B841718F481918D93F9CFDE
:100420000895382FDB01A20FB11DFC0180E09E2F43
:10043000931B941760F491912D91921721F0222330
:10044000B1F380E00895992391F381E0F0CF08950E
:10045000633018F02DEF260F01C020E043E0BC010F
:100460008FE890E2DECF8F929F92AF92BF92CF92B1
:10047000DF92EF92FF921F93CF93DF937C014B01AA
:1004800080E091E00E94ED10EC0180E091E00E949C
:10049000ED106C0110E0612FCE01DADF8130B1F098
:1004A00087EA91E60197F1F700C0000019D288238E
:1004B00091F369D15C01BC017727C60166D29E0128
:1004C0004A2DB601812FA0DF1A0DE5CF940144E03B
:1004D000BE0180E099DFCE010E948511C6010E9415
:1004E0008511F7011082EF5FFE4F1082C701DF9187
:1004F000CF911F91FF90EF90DF90CF90BF90AF9082
:100500009F908F9008951092B8211092C42110925C
:10051000C521EAEBF1E281EA808380E281831282E5
:1005200013821482158282E090E08683978310867E
:100530001186E6ECF1E280E092ECA1E0B0E080838D
:100540009183A283B3831482158288E0868380918D
:10055000B8218F5F8093B82181E008958091B82100
:1005600081508093B82108958091B7218150809364
:10057000B7218091B7211092B621089580E00895A7
:1005800080E00895089590911D24892F807697FF2B
:100590000EC0803271F580911E24813251F5809118
:1005A0002324909124248730910519F516C08032B8
:1005B00001F580911E24803219F08232C1F019C0F9
:1005C00080912324909124248730910591F422EC8A
:1005D00032E02093292430932A2426EC31E2209320
:1005E000252430932624809327249093282481E087
:1005F000089580E00895FF920F931F93CF93DF93A8
:100600008091A52081118EC00E94540DC091A6201A
:10061000D091A7208823A9F00E94610DC817D9079F
:1006200009F480C0DFB7F894C091A820EC2FF0E067
:10063000EE0FFF1FE755FF4D80819181892B29F532
:1006400003C00E945C0DEACF8091A2209091A3206C
:1006500001968093A2209093A3200E94540D8111B3
:1006600009C08091A2209091A3208436910510F4B6
:10067000DFBF58C00E94540D882339F08091A2201A
:100680009091A3208032934098F31092A220109270
:10069000A3208091A420811106C081E0C11180E0D7
:1006A0008093A82004C081E0C11180E0C82F81E0C0
:1006B0008093A520DFBFD0E08E01000F111FF8014D
:1006C000E755FF4D80819181FF24F394803491059B
:1006D00009F4F12C8034910571F00E94540D8823A7
:1006E00019F00E94610D02C00E945C0D8093A6204B
:1006F0009093A72004C01092A6201092A720F80182
:10070000E755FF4D20813181AE0186E0440F551F32
:100710008A95E1F742555F4D09E913E06F2D81E8B5
:100720000E94E20DDF91CF911F910F91FF900895EC
:1007300062CF811114C02091A82081E090E0222393
:1007400011F080E090E0880F991FFC01E755FF4D04
:10075000108211821092A4201092A5204CCF0895EF
:100760004FB7F89420912F2130913021E091312121
:10077000F0E0EE0FFF1FEE5CFE4D808191814FBFD8
:10078000821B930B089580E0EBCFEADF21E0892BF9
:1007900009F420E0822F08950F931F93CF93DF93E6
:1007A0008FB7F8942091312190912E21911110C092
:1007B00060912F2170913021C22FD0E0FE01EE0F09
:1007C000FF1FEE5CFE4D408151816417750718F4E0
:1007D0008FBF80E01FC010922F211092302191E036
:1007E000211190E09093312191E090932E218FBFC1
:1007F00080E0CBDFAE0186E0440F551F8A95E1F71C
:100800004A5C5E4D03E414E020E430E061E082E005
:100810000E94E20DDF91CF911F910F9108951092E8
:10082000B7211092A5201092A4201092A820109217
:10083000A9201092AA201092AB201092AC20109206
:10084000A6201092A720D7DE10922E2110923121DF
:1008500010923221109233211092342110923521BE
:1008600010922F211092302197DF882359F0909118
:10087000B7219F5F9093B7219091B721913011F4E8
:100880009093B62108950F931F93811126C08091F4
:10089000312121E0811120E030E06115710589F4FA
:1008A000842F96E0220F331F9A95E1F7A9014A5C45
:1008B0005E4D03E414E020E430E061E00E94E20DCC
:1008C0000CC0220F331FF901EE5CFE4D6083718373
:1008D00010922E211F910F915FCF1F910F910895BC
:1008E00080E053CFEF92FF920F931F93CF93DF934C
:1008F0008B01EA014FB7F89480912F21909130211C
:100900006091312170E0FB01EE0FFF1FEE5CFE4DA8
:10091000208131814FBF8217930730F08091B6213B
:100920008111E8CFCE012AC020813181281B390BEB
:100930007E012C173D0708F4790126E0660F771F2A
:100940002A95E1F7680F791F6A5C7E4DA701C801FF
:100950000E940E1280912F21909130218E0D9F1DAB
:1009600080932F21909330210E0D1F1DCE19DF098A
:1009700013DF209709F0BECF80E090E0DF91CF91A8
:100980001F910F91FF90EF900895AB01BC0180E0A3
:10099000A9CF4FB7F8949091A820E92FF0E0EE0F7F
:1009A000FF1FE755FF4D208131812034310589F447
:1009B0008091A52081110DC08091A420811109C0D2
:1009C00081E08093A420911180E08093A82020E012
:1009D00030E04FBF80E490E0821B930B0895D9DF95
:1009E00021E0892B09F420E0822F08957F928F92D5
:1009F0009F92AF92BF92CF92DF92EF92FF920F93AE
:100A00001F93CF93DF936B01EA018091CC21893052
:100A100011F4CC0FDD1F40E4A42EB12C80E0DFDF09
:100A2000811106C08091B6218111F8CFCE0131C06D
:100A30007FB6F8948091A82090E04C01880C991C16
:100A4000F401E755FF4DE080F18095012E193F0933
:100A50008E012C173D0708F4890126E0880F991FA5
:100A60002A95E1F78E0D9F1DA801B60182559F4D75
:100A70000E940E12F401E755FF4DE00EF11EE082D8
:100A8000F1827FBEC00ED11EC01BD10B39F680E0B3
:100A900090E0DF91CF911F910F91FF90EF90DF9049
:100AA000CF90BF90AF909F908F907F900895AB01B3
:100AB000BC0180E09BCF80911F248F77F7C7909176
:100AC000D421911102C080E00895E091D221F091EB
:100AD000D3210190F081E02D94818917A0F7E09354
:100AE000D021F093D121228133812E0F3F1FE217B5
:100AF000F30798F49181943061F49281891309C0CD
:100B00009381691306C0E093D021F093D12181E055
:100B100008959081E90FF11DEACFE093D021F09381
:100B2000D121D1CFE091D221F091D3210190F08158
:100B3000E02D228133812E0F3F1FFC014081E40F05
:100B4000F11DE217F30748F48181843031F08530DC
:100B500039F08081E80FF11DF4CF80E090E0089536
:100B6000CF0108951F93CF93DF93182FA8DF882319
:100B700039F1C091D021D091D121CE01D3DFEC0148
:100B8000892B41F04C815D816B818A81A4D78111D1
:100B9000F4CF16C0E091D221F091D32192818381CC
:100BA000E92FF82FE10FF11DE10FF11D0190F08108
:100BB000E02D0190F081E02DDF91CF911F911994EC
:100BC00080E0DF91CF911F910895EF92FF921F93E4
:100BD000CF93DF93C82F60E072DF811102C010E075
:100BE0002DC0E091D221F091D32192818381E92F10
:100BF000F82FEC0FF11DEC0FF11DE080F180D70113
:100C00001696ED91FC9117971995682F8C2F57DF49
:100C1000182F882321F3C091D021D091D121CE016A
:100C200081DFEC01892B21F08A810E948C0EF7CFA5
:100C3000D7011296ED91FC9113971995812FDF91B1
:100C4000CF911F91FF90EF900895C3C6CF938091ED
:100C5000D421882311F0C0E00AC01092D42181E091
:100C600090E08093D8219093D921CF910895E0917D
:100C7000D221F091D3210190F081E02D8481C81719
:100C800060F78C2FA2DFCF5FF2CFCF938091D4217A
:100C90008823F1F0C0E0E091D221F091D321A0812E
:100CA000B18114968C91C81798F492818381E92FB1
:100CB000F82FEC0FF11DEC0FF11D0190F081E02DEC
:100CC0000084F185E02D309709F01995CF5FE3CFCF
:100CD000CF9108950F931F93CF93DF931092272402
:100CE000109228241092292410922A2410922B2446
:100CF00010922C2480911D2487FF07C0209123246B
:100D000030912424232B09F420C2982F907609F0E7
:100D1000A9C187FFDBC02091232430912424211511
:100D2000310509F49FC18F7109F07EC080911E24A6
:100D3000863071F0883009F46DC0811193C1223082
:100D4000310509F08FC162E070E088ED91E26AC080
:100D500080911F2490912024292F332722303105A0
:100D6000A1F060F42130310509F07CC180911C2094
:100D700090911D20DC016C9170E03AC02330310568
:100D800089F12F30310509F16DC1E0911C20F091FE
:100D90001D202189821708F065C19927880F991FA6
:100DA000880F991FE0911E20F0911F20E80FF91F76
:100DB00080819181FC016281738186D6E091252436
:100DC000F091262482E0818314C0809120209091AC
:100DD0002120009709F446C1DC0112966D917C91A7
:100DE000139706C081113EC164E070E080E890E294
:100DF0006BD6809123249091242420912724309134
:100E000028248217930708F06BC1809327249093BE
:100E1000282466C12130310509F024C161E070E069
:100E200084ED91E251D65CC18130C1F580911E24E0
:100E30008A3009F017C12130310509F013C18091C2
:100E4000D421882309F40EC1C0912124D0912224F9
:100E50000091D2211091D321D801ED91FC91848190
:100E6000C81708F0FFC060E08C2F29DE882309F442
:100E7000F9C0DD27CC0FDD1FF80182819381C80FF7
:100E8000D91FE881F9810680F781E02D19958093BB
:100E9000D62161E070E086ED91E2C4CF823009F0A6
:100EA000E1C080911E248111DDC02230310509F09E
:100EB000D9C08091212462D690E08093CE21909376
:100EC000CF2162E070E08EEC91E2ACCF8F7109F03F
:100ED0007DC080911E24833009F4C4C018F4813091
:100EE000A1F0C0C0853019F0893039F1BBC08091C4
:100EF000232490912424892B09F0B4C08BE595E03C
:100F00008093292490932A24EBC0809123249091EC
:100F10002424892B09F0A6C080911F2490912024BD
:100F2000019709F09FC08091D8219091D9218D7FA0
:100F30008093D8219093D921D3C08091232490917C
:100F40002424892B09F08EC0B4D5882309F48AC0E3
:100F500020911F24309120243327E0911C20F09110
:100F60001D20818990E08217930708F47BC06EDE14
:100F700080911F24909120248093D421882309F408
:100F8000AFC099278150904C880F991F880F991FE7
:100F900020911E2030911F20820F931F8093D22119
:100FA0009093D321C0E0E091D221F091D321019020
:100FB000F081E02D8481C81708F092C060E08C2F8A
:100FC000D1DD882309F44EC0CF5FEDCF8130E9F445
:100FD00080911E248B3009F045C08091232490918C
:100FE0002424892B09F03EC08091D421882309F460
:100FF00039C0C0912124D0911F248C2FE6DD882395
:1010000089F16D2F8C2FAEDD2BC0823059F5809188
:101010001E24813019F0833089F024C0809123246C
:1010200090912424892BF1F480911F249091202405
:10103000892BC1F480912124A8D512C0809123244A
:1010400090912424892B71F480911F249091202465
:10105000892B41F4809121242FD68091212465D6BB
:1010600081113EC080911D248F718130D9F580910E
:10107000D421882309F469C0C0912124D09122246D
:101080000091D2211091D321D801ED91FC9184815E
:10109000C81708F05AC060E08C2F11DD882311F1C9
:1010A000FE01FF27EE0FFF1FD80112968D919C9134
:1010B0001397E80FF91F00811181D8011696ED9161
:1010C000FC9117971995682F8C2FF9DC882351F024
:1010D000D8011496ED91FC9115971995882311F07C
:1010E00081E034C080911D248F71823071F5809130
:1010F000D421882351F1C0E0E091D221F091D32195
:10110000A081B18114968C91C817F8F492818381E3
:10111000E92FF82FEC0FF11DEC0FF11D008111816B
:10112000D8011696ED91FC9117971995682F8C2F81
:10113000C6DC882351F0D8011496ED91FC911597E7
:1011400019958111CDCFCF5FD7CF80E0DF91CF91BF
:101150001F910F9108951F920F920FB60F921124B5
:101160000BB60F922F933F934F935F936F937F93A1
:101170008F939F93AF93BF93EF93FF93409124027C
:1011800050912502E0911B24F0911C2461E080E045
:1011900092E01995FF91EF91BF91AF919F918F913F
:1011A0007F916F915F914F913F912F910F900BBE67
:1011B0000F900FBE0F901F9018951F920F920FB6B1
:1011C0000F9211240BB60F922F933F934F935F937F
:1011D0006F937F938F939F93AF93BF93EF93FF93FF
:1011E00040912C0250912D02E0911B24F0911C247F
:1011F00062E080E092E01995FF91EF91BF91AF918D
:101200009F918F917F916F915F914F913F912F911E
:101210000F900BBE0F900FBE0F901F9018951F924E
:101220000F920FB60F9211240BB60F922F933F938C
:101230004F935F936F937F938F939F93AF93BF93DE
:10124000EF93FF934091340250913502E0911B24BB
:10125000F0911C2464E080E092E01995FF91EF91F9
:10126000BF91AF919F918F917F916F915F914F91BE
:101270003F912F910F900BBE0F900FBE0F901F90BC
:1012800018951F920F920FB60F9211240BB60F9262
:101290002F933F934F935F936F937F938F939F937E
:1012A000AF93BF93EF93FF9340913C0250913D0267
:1012B000E0911B24F0911C2468E080E092E01995F5
:1012C000FF91EF91BF91AF919F918F917F916F911E
:1012D0005F914F913F912F910F900BBE0F900FBEDA
:1012E0000F901F9018951F920F920FB60F92112416
:1012F0000BB60F922F933F934F935F936F937F9310
:101300008F939F93AF93BF93EF93FF9340916402AA
:1013100050916502E0911924F0911A2461E080E473
:1013200092E01995FF91EF91BF91AF919F918F91AD
:101330007F916F915F914F913F912F910F900BBED5
:101340000F900FBE0F901F9018951F920F920FB61F
:101350000F9211240BB60F922F933F934F935F93ED
:101360006F937F938F939F93AF93BF93EF93FF936D
:1013700040916C0250916D02E0911924F0911A2471
:1013800062E080E492E01995FF91EF91BF91AF91F7
:101390009F918F917F916F915F914F913F912F918D
:1013A0000F900BBE0F900FBE0F901F9018951F92BD
:1013B0000F920FB60F9211240BB60F922F933F93FB
:1013C0004F935F936F937F938F939F93AF93BF934D
:1013D000EF93FF934091740250917502E0911924AC
:1013E000F0911A2464E080E492E01995FF91EF9166
:1013F000BF91AF919F918F917F916F915F914F912D
:101400003F912F910F900BBE0F900FBE0F901F902A
:1014100018951F920F920FB60F9211240BB60F92D0
:101420002F933F934F935F936F937F938F939F93EC
:10143000AF93BF93EF93FF9340917C0250917D0255
:10144000E0911924F0911A2468E080E492E0199563
:10145000FF91EF91BF91AF919F918F917F916F918C
:101460005F914F913F912F910F900BBE0F900FBE48
:101470000F901F901895E82FF0E0E35DFB4D808101
:101480008F3F09F4FFCF9FB7F89480818F5F8083EF
:101490009FBF0895E82FF0E0E35DFB4D808181114F
:1014A00001C0FFCF9FB7F8948081815080839FBF98
:1014B0000895CF93C82F80910423C11105C08823BC
:1014C00039F081E0E7DF04C0811102C081E0D3DFA1
:1014D000C0930423CF910895282F2F70082E000C5D
:1014E000990B392F331F3327331F832F90E0820F3F
:1014F000911D820F911D23E0880F991F2A95E1F716
:1015000080539D4D08950F93E8ECF4E080818F7D2A
:10151000808380818F7D8083E8EDF2E202E0059395
:101520001092DA221092DB2200E2069300E4069386
:10153000E0EDF2E200E2069300E40693EDE1F4E26E
:101540001486158616861786128613861092C32275
:101550000F9108950F9385E08093C322E9EDF2E2A5
:1015600004E00593E1EDF2E204E005930F910895A4
:101570000F9383E08093C3221092DA221092DB2231
:10158000E8EDF2E202E006930F910895E09129243C
:10159000F0912A24309709F019940895282F2F707C
:1015A000082E000C990B392F331F3327331F832F3D
:1015B00090E0820F911D820F911D029749E0489F94
:1015C0009001499F300D1124C901855A9D4D089500
:1015D000AF92BF92DF92EF92FF920F931F93CF9340
:1015E000DF93D82EDBDFEC018D2D76DF7C01DC0173
:1015F0001196EC91E770E150E73040F4F0E0EE0F27
:10160000FF1FED56FF4D0081118102C008E010E080
:101610002D813E818B819C814881D7FE4AC0F70194
:1016200066817781260F371F2D833E832817390760
:10163000A1F1BC01621B730B9B01211574E03707FC
:1016400038F02FEF33E0C901B801B3D5281B390BAF
:1016500041FF0AC0C901B801ACD5AC0191E0452BEE
:1016600009F090E0892F01C080E0988180FB91F91A
:101670009883D70116961D921C92179712962D9358
:101680003C93139729813A818D819E81820F931F0C
:1016900014968D939C93159708C041FF78C04D7F99
:1016A00048831682178212821382F70102E00693A2
:1016B00085C0D7011296AD90BC90139742FF0FC022
:1016C000E981FA81B80175D5B0E4DB9EB00111243F
:1016D00065567E4DAC01CF01820F931F9FD62D81A1
:1016E0003E812A0D3B1D2D833E838B819C81821779
:1016F000930710F48D839E83F70126813781A2160C
:10170000B30609F044C02D813E818217930709F486
:101710003EC0AC01421B530B9A01211554E0350722
:1017200050F02FEF33E0C901B80143D5B901681B70
:10173000790BCB0107C0C901B8013BD5D901A81B62
:10174000B90BCD01F701128213828017910798F42B
:10175000888184608883F0E4DF9EC001112485566F
:101760009E4DD70114968D939C93159716960D93C5
:101770001C9317979ACF49815A812D813E81240F5E
:10178000351FF70124833583868397838ECF888125
:1017900080FF14C08E7F8883EF81F885309771F0C9
:1017A0006D817E814D2D80E0DF91CF911F910F9152
:1017B000FF90EF90DF90BF90AF901994DF91CF91A1
:1017C0001F910F91FF90EF90DF90BF90AF90089521
:1017D0000F93CF93DF938091C322833029F4D6DE19
:1017E000DF91CF910F918FCE2091BF223091C022F7
:1017F000C0912724D0912824C21BD30B61F580917E
:10180000C1229091C222820F931F8093C122909394
:10181000C22220912324309124248217930721F09F
:101820008091DA21882331F084E08093C322E0EDB7
:10183000F2E236C0E0912B24F0912C24309799F0FD
:101840001995882381F01092BF221092C022C09176
:101850002724D0912824C034D10528F01092DA2111
:10186000C0E4D0E003C081E08093DA21C093DA22A3
:10187000D093DB228091BF229091C0222091252419
:1018800030912624280F391F2093DC223093DD224B
:10189000C80FD91FC093BF22D093C022E8EDF2E257
:1018A00002E00693DF91CF910F9108950F93CF93AC
:1018B0008091CC0480FF63C021E02093CC0480EDB4
:1018C00092E2FC0100E80693E8EDF2E200E80693FC
:1018D0002093CA04FC0100E106938091C32288236F
:1018E00029F08350823008F451DE0DDE8091D2223F
:1018F0009091D322089709F044C088E0EFE7F2E224
:10190000ADE1B4E201900D928A95E1F78091C804AF
:1019100080628093C8048091C80480628093C80468
:10192000D9D9C82F811102C015DE2BC080911D248A
:1019300087FF0DC01092C1221092C2221092BF22C6
:101940001092C02282E08093C32242DF1BC08091AC
:10195000232490912424892B11F40ADE13C01092C1
:10196000C1221092C2221092BF221092C02281E0A6
:101970008093C322E0EDF2E202E0069303C0C0E0F0
:1019800001C0C1E08C2FCF910F910895CF93CFB7B5
:10199000F89481E08EDDEAECF4E080E4808380E27C
:1019A0008083E1ECF4E0808181608083A9ECB4E085
:1019B0008C9182608C93E8ECF4E080818064808379
:1019C0008C9181608C93808180688083CFBFCF9120
:1019D0000895CF931092600080E395D38091C00466
:1019E00080648093C00481E080936000CFB7F89456
:1019F0001092D1221092D9221092E1221092E92263
:101A00001092F1221092F92280915B228E7F8093B6
:101A10005B22809164228E7F8093642280916D226C
:101A20008E7F80936D22809176228E7F80937622A6
:101A30006AE170E082E09BD38F3F09F48FE18093ED
:101A4000FA046BE170E082E092D38F3F09F48FE1FA
:101A50008093FB048091C00482608093C0048091D5
:101A6000C00480688093C0048091C004806180932A
:101A7000C00480ED92E28093C6049093C7048091E5
:101A8000C00480628093C0048FEF8093C50480916E
:101A9000C80481608093C8041092042385E0EBDCC5
:101AA00075DFCFBFCF91089580E008958093C30480
:101AB00008958091C304089580910023909101239B
:101AC000089580E090E00895EDE1F4E28087918749
:101AD0006287738708951F93CF93DF93162FEA01D0
:101AE000FBDCFC018181807C09F041C0612F6370C7
:101AF000613019F020F080E803C080EC01C080E480
:101B0000C038D105E1F050F4C032D105A1F0C034A5
:101B1000D10599F06097C9F491E018C0C11592E021
:101B2000D90779F0CF3F93E0D90769F0C115D140CB
:101B300061F495E00BC092E009C093E007C094E027
:101B400005C096E003C097E001C090E0118226E056
:101B50002083982B91838181807C803C21F481813A
:101B60008770873031F081818062818302C080E09C
:101B700001C081E0DF91CF911F910895ADDCFC01A0
:101B8000818182FB882780F908950F93CF93C82F16
:101B9000A3DCFC0101E00693818182FF0FC08181FB
:101BA0008B7F81838C2FFADCFC01908190FF06C033
:101BB0009E7F90830780F085E02D199581E0CF917D
:101BC0000F910895AF92BF92CF92DF92EF92FF9262
:101BD0000F931F93CF93DF93D82EC62E5A0179010E
:101BE000DDDCEC018D2D78DC9C01DC0111968C9103
:101BF0001197807C09F454C011968C911197807CC8
:101C0000803C21F011968C9182FD4AC09FB7F894D8
:101C1000888180FF02C09FBF43C0816088839FBFCF
:101C2000A982BA82EB82FC821D821E820F831887F2
:101C300091E0C11004C0E114F10409F090E0888142
:101C400090FB81F98B7F8883D7FE02C0F90122C007
:101C5000D90111968C911197807C803CC1F411962A
:101C6000EC91E770E150E73040F4F0E0EE0FFF1F39
:101C7000ED56FF4D6081718102C068E070E0C701E0
:101C800098D2892B21F088818E7F888309C0F90141
:101C900012821382168217828D2D9ADC81E001C098
:101CA00080E0DF91CF911F910F91FF90EF90DF9037
:101CB000CF90BF90AF900895EF92FF920F93CF9384
:101CC000C82F0ADC7C018C2F69DCDC01F70102E003
:101CD00005939C9190FF1BC09E7F9C931796ED915E
:101CE000FC911897309799F0D701C7FF05C0169659
:101CF0006D917C91179704C012966D917C9113970A
:101D00004C2F81E0CF910F91FF90EF901994CF91DC
:101D10000F91FF90EF900895CF93C82FCDDF8C2FB8
:101D2000DBDBFC011182CF910895CF93C82FD4DB68
:101D3000FC019181946091838C2FBEDF81E0CF9173
:101D400008951F920F920FB60F9211240BB60F92A7
:101D50000F932F933F934F935F936F937F938F9343
:101D60009F93AF93BF93EF93FF938091CB0487FF33
:101D700006C080E88093CA040E9445067DC0809119
:101D8000CB0482FF18C084E08093CA048091D822DB
:101D900086FF72C08091CC0481FD6EC087DD811109
:101DA0006BC08091C322813011F4E2DB65C08430C6
:101DB00009F062C021C08091CB0481FF26C082E07F
:101DC0008093CA048091D02286FF56C08091CC04B3
:101DD00081FD52C06BDD81114FC08091C3228230E2
:101DE00041F484E08093C322E0EDF2E202E0069346
:101DF00043C0833009F040C0E9EDF2E204E005930E
:101E0000E1EDF2E204E0059337C08091CB0484FF5A
:101E100021C080E18093CA0481E04EDF81E84CDF7D
:101E20000E9426061092C3041092D12296E090934D
:101E3000D02283E48093D1221092D9229093D82289
:101E40008093D9228FE792E28093D4229093D52277
:101E50005ADB12C08091CB0486FF05C080E48093DA
:101E6000CA0480E008C08091CB0485FF05C080E2F1
:101E70008093CA0481E01DDBFF91EF91BF91AF9188
:101E80009F918F917F916F915F914F913F912F9192
:101E90000F910F900BBE0F900FBE0F901F901895D3
:101EA0001F920F920FB60F9211240BB60F920F9341
:101EB0001F932F933F934F935F936F937F938F93D2
:101EC0009F93AF93BF93CF93DF93EF93FF93809153
:101ED000CC0481FF1AC082E08093CC048091C504B9
:101EE0008195880FE0EDF2E2E81BF1092081318154
:101EF000205D324283E0369527958A95E1F7822F5F
:101F0000869520FD06C0C0E005C0D0DC882319F30B
:101F100086C0C0E8C80F8C2FDFDAFC01208125FFC6
:101F20007EC000E20693C11174C08091C322843048
:101F300019F42CDBE8DA73C00091D2221091D3227D
:101F40008091272490912824C091BF22D091C02253
:101F500098012C0F3D1F8217930718F48C010C1B5E
:101F60001D0B8091252490912624A8016FE772E231
:101F70008C0F9D1F53D2C00FD11FC093BF22D0938F
:101F8000C0220034110569F48091C1229091C222CF
:101F90008C0F9D1F209123243091242482179307B6
:101FA00088F0C0932724D0932824E0912B24F0912B
:101FB0002C24309729F01995811102C0CBDA2FC05B
:101FC000D7DA2DC08091272490912824C817D907EB
:101FD000D9F4E0912B24F0912C24309779F31995C2
:101FE000882361F32091C1223091C2228091BF22C7
:101FF0009091C022820F931F8093C1229093C2229E
:102000001092BF221092C022E0EDF2E202E00693AD
:1020100006C0C03811F4DCDB02C08C2FD9DAFF9186
:10202000EF91DF91CF91BF91AF919F918F917F9170
:102030006F915F914F913F912F911F910F910F9051
:102040000BBE0F900FBE0F901F901895CF93DF938C
:1020500000D01F92CDB7DEB78FEF809370008093D2
:10206000710080937200809373008093740080935A
:102070007500809376006CE170E082E078D08C830C
:102080006DE170E082E073D08B838B819C8101963F
:1020900021F480E493E28B839C838B819C818983F0
:1020A0009A83809362008A81809363008BEC809393
:1020B00052009FB7F8948091500088608093500040
:1020C0009FBF8091510083FFFCCF63E080E490E0EC
:1020D00058D09FB7F894809150008E7F8093500025
:1020E0009FBF2496CDBFDEBFDF91CF9108959FB7EC
:1020F000F894E82FF0E0E059FF4F60958081682365
:1021000060839FBF0895863011F060E001C068E1F0
:102110008091510081FD24C09FB7F89480915000B8
:102120008260809350009FBF8091510081FFFCCF5F
:102130009FB7F89480915600897F8093560080E87D
:10214000809365008BEB80936600809156008460DD
:1021500080935600809160008160809360009FBFF3
:10216000636084E490E00DD060E480E0C0CF4091F3
:10217000CA01E62FF72F8093CA0184914093CA01C8
:1021800008951BBEFC0128ED24BF608308958BECED
:10219000809352008091500088608093500080911D
:1021A000510083FFFCCF88ED84BF83E08093400023
:1021B0000895AA1BBB1B51E107C0AA1FBB1FA6178E
:1021C000B70710F0A61BB70B881F991F5A95A9F7E0
:1021D00080959095BC01CD0108950F931F93CF93E7
:1021E000DF938230910510F482E090E0E091352495
:1021F000F091362420E030E0A0E0B0E0309719F113
:10220000408151810281138148175907C8F0841712
:10221000950769F4109731F012960C931297139664
:102220001C9327C0009335241093362422C0211517
:10223000310519F04217530718F49A01BD01EF0157
:10224000DF01F801DBCF21153105F9F0281B390B2F
:102250002430310580F48A819B816115710521F05C
:10226000FB018283938304C08093352490933624AA
:10227000FE01329644C0FE01E20FF31F8193919359
:1022800022503109288339833AC020913324309178
:102290003424232B41F420910220309103202093F9
:1022A00033243093342420910020309101202115D3
:1022B000310541F42DB73EB74091042050910520DF
:1022C000241B350BE0913324F0913424E217F307FB
:1022D000A0F42E1B3F0B2817390778F0AC014E5F96
:1022E0005F4F2417350748F04E0F5F1F409333248C
:1022F000509334248193919302C0E0E0F0E0CF0149
:10230000DF91CF911F910F910895CF93DF930097A5
:1023100009F481C0FC01329712821382A091352406
:10232000B0913624109781F420813181820F931F60
:1023300020913324309134242817390751F5E09344
:102340003324F093342467C0ED0120E030E0CE1751
:10235000DF0740F44A815B819E0141155105F1F090
:10236000EA01F5CFC283D38340815181840F951F49
:10237000C817D90759F488819981840F951F02964F
:10238000808391838A819B81828393832115310588
:1023900029F4E0933524F09336243DC0E901EA8323
:1023A000FB8349915991C40FD51FEC17FD0761F4C8
:1023B00080819181840F951F0296E901888399831A
:1023C000828193818A839B83E0E0F0E012968D9175
:1023D0009C911397009719F0FD01DC01F7CF8D91C7
:1023E0009C9111979D012E5F3F4F820F931F20916B
:1023F0003324309134242817390769F4309729F4AD
:10240000109235241092362402C012821382A093B7
:102410003324B0933424DF91CF910895FB01DC0184
:1024200002C001900D9241505040D8F70895F894A1
:02243000FFCFDC
:1024320000003724200007240F04B402BE02C002A9
:1024420098038302AE02C302C00200006E20222063
:1024520000002A202620122008200902430002013F
:1024620000C032090400000102020100052400102C
:1024720001042402020524060001052401030107C8
:1024820005820340001009040100020A000000074F
:10249200058102400000070502024000000012010F
:1024A200000202000040EB030424000100000001CE
:1024B20004030904434F434B004341434B0D006562
:1024C2006F7400100020004000800000010002FF35
:0224D200030005
:00000001FF
